:0200000480007A
:100000006F00C0006F0000006F00C0029702000088
:10001000938282027390523073500030735040309C
:10002000973100009381015B17C10300130181FF29
:100030006F00801E130101F82320110023222100EC
:10004000232431002326410023285100232A610064
:10005000232C7100232E8100232091022322A10250
:100060002324B1022326C1022328D102232AE1023C
:10007000232CF102232E0103232011052322210525
:10008000232431052326410523285105232A610510
:10009000232C7105232E8105232091072322A107FC
:1000A0002324B1072326C1072328D107232AE107E8
:1000B000232CF107F3221034232E5106732520340C
:1000C000F325103413060100EF00C04D73101534F2
:1000D000B72200009382028073A0023083200100C7
:1000E00003214100832181000322C10083220101F9
:1000F00003234101832381010324C10183240102DD
:1001000003254102832581020326C10283260103C0
:1001100003274103832781030328C10383280104A4
:100120000329410483298104032AC104832A010588
:10013000032B4105832B8105032CC105832C01066C
:10014000032D4106832D8106032EC106832E010750
:10015000032F4107832F810713010108730020300B
:10016000130101FE232E8100130401022326A4FEA5
:100170002324B4FE2322C4FE6F00C0028327C4FEE2
:1001800003A70700832784FE23A0E7008327C4FE7C
:10019000938747002326F4FE832784FE9387470036
:1001A0002324F4FE032784FE832744FEE3F8E7FCC0
:1001B000130000000324C101130101026780000045
:1001C00000000000130101FD232681021304010336
:1001D000232EA4FC232CB4FC8327C4FD2326F4FE89
:1001E0006F0080018327C4FE23A007008327C4FE7D
:1001F000938747002326F4FE0327C4FE832784FD4C
:10020000E3F2E7FE130000000324C102130101031F
:100210006780000000000000130101FE232E110082
:10022000232C810013040102B7370080938707CC89
:100230002326F4FE8327C4FE2320F4FE232204FE9B
:10024000232404FE13860182B7370080938507DDDF
:10025000B7370080138507DDEFF09FF0138601901C
:100260009385018213850182EFF09FEF93850197BB
:1002700013850190EFF01FF5B7C701809385070242
:1002800013850197EFF01FF4930704FE9385070091
:1002900013051000EF209003130000008320C1011C
:1002A00003248101130101026780000000000000A7
:1002B000130101FF23268100130401011300000034
:1002C0000324C10013010101678000000000000049
:1002D000130101FD2326810213040103232EA4FC34
:1002E000F32740F12326F4FE8327C4FE2324F4FEE3
:1002F000370700408327C4FD93D75700832684FE29
:1003000093965600B386F600B717000093870780D0
:10031000B387F60093972700B307F70083A707007A
:100320002322F4FE8327C4FD93F7F701130710007F
:10033000B317F70093C7F7FF032744FEB377F7001F
:100340002322F4FE370700408327C4FD93D75700CC
:10035000832684FE93965600B386F600B7170000F6
:1003600093870780B387F60093972700B307F700BA
:10037000032744FE23A0E700130000000324C1026A
:10038000130101036780000000000000130101FE5B
:10039000232E810013040102F32740F12326F4FEEB
:1003A0008327C4FE2324F4FE37070040832784FEFE
:1003B000938707209397C700B307F70083A74700E9
:1003C000138507000324C1011301010267800000A7
:1003D00000000000130101FD232681021304010324
:1003E000232EA4FCF32740F12326F4FE8327C4FE2A
:1003F0002324F4FE37070040832784FE93870720D9
:100400009397C700B307F7000327C4FD23A2E700B3
:10041000130000000324C1021301010367800000E0
:1004200000000000130101FE232E810013040102CD
:10043000F36704302326F4FE130000000324C101F7
:10044000130101026780000000000000130101FE9B
:10045000232E1100232C81001304010293070008AE
:10046000F3B747302326F4FEEF10803037070044FF
:10047000B7C70000B307F70003A8C7FF83A787FF2C
:1004800013870190832507000326470037050044A2
:10049000732740F12324E4FE832884FEB386B7004B
:1004A000138306003333F3003307C800B307E300B8
:1004B000138707009387060013080700371700000B
:1004C000130707803387E800131737003307E50069
:1004D0002320F7002322070193070008F3A74730E2
:1004E0002322F4FE130000008320C10103248101B4
:1004F000130101026780000000000000130101FEEB
:10050000232E1100232C810013040102EFF01FE8B9
:100510002326A4FEA30504FEB73700800327C4FEEC
:1005200013172700938707DFB307F70083A7070098
:10053000E780070093070500A305F4FE0325C4FE2A
:10054000EFF05FE90347B4FE930710006316F7006E
:100550000325C4FEEFF0DFD7130000008320C101A4
:1005600003248101130101026780000000000000E4
:10057000130101FF2326110023248100130401012C
:10058000EF100031B707004423A00700130000005C
:100590008320C10003248100130101016780000052
:1005A00000000000130101FE232E1100232C810006
:1005B000130401022326A4FE2324B4FE8327C4FED1
:1005C00063D207020327C4FEB707008093C7F7FF73
:1005D0003377F7009307B0006316F700EFF01FF2D0
:1005E0006F0080078327C4FE63D207020327C4FE7F
:1005F000B707008093C7F7FF3377F70093077000C2
:100600006316F700EFF09FE46F0000058327C4FE38
:1006100063D207020327C4FEB707008093C7F7FF22
:100620003377F700930730006316F700EFF05FF4BD
:100630006F00800213065000B7370080938587CC87
:1006400013051000EF20C05F8327C4FE93871700B7
:1006500013850700EF00C058832784FE1385070029
:100660008320C1010324810113010102678000007E
:1006700000000000130101FF232681001304010183
:1006800093070000138507000324C1001301010133
:100690006780000000000000130101FF2326810095
:1006A0001304010193070000138507000324C10010
:1006B000130101016780000000000000130101FF29
:1006C000232681001304010193070000138507000E
:1006D0000324C10013010101678000000000000035
:1006E000130101FF23268100130401019307000079
:1006F000138507000324C100130101016780000076
:1007000000000000130101FF2326810013040101F2
:1007100093070000138507000324C10013010101A2
:100720006780000000000000130101FF2326810004
:100730001304010193070000138507000324C1007F
:10074000130101016780000000000000130101FF98
:10075000232681001304010193070000138507007D
:100760000324C100130101016780000000000000A4
:10077000130101FF232681001304010193070000E8
:10078000138507000324C1001301010167800000E5
:1007900000000000130101FF232681001304010162
:1007A00093070000138507000324C1001301010112
:1007B0006780000000000000130101FF2326810074
:1007C0001304010193070000138507000324C100EF
:1007D000130101016780000000000000130101FF08
:1007E00023268100130401019307000013850700ED
:1007F0000324C10013010101678000000000000014
:10080000130101FF23268100130401019307000057
:10081000138507000324C100130101016780000054
:1008200000000000130101FF2326810013040101D1
:1008300093070000138507000324C1001301010181
:100840006780000000000000130101FF23268100E3
:100850001304010193070000138507000324C1005E
:10086000130101016780000000000000130101FF77
:10087000232681001304010193070000138507005C
:100880000324C10013010101678000000000000083
:10089000130101FF232681001304010193070000C7
:1008A000138507000324C1001301010167800000C4
:1008B00000000000130101FF232681001304010141
:1008C00093070000138507000324C10013010101F1
:1008D0006780000000000000130101FF2326810053
:1008E0001304010193070000138507000324C100CE
:1008F000130101016780000000000000130101FFE7
:1009000023268100130401019307000013850700CB
:100910000324C100130101016780000000000000F2
:10092000130101FF23268100130401019307000036
:10093000138507000324C100130101016780000033
:1009400000000000130101FF2326810013040101B0
:1009500093070000138507000324C1001301010160
:100960006780000000000000130101FF23268100C2
:100970001304010193070000138507000324C1003D
:10098000130101016780000000000000130101FF56
:10099000232681001304010193070000138507003B
:1009A0000324C10013010101678000000000000062
:1009B000130101FF232681001304010193070000A6
:1009C000138507000324C1001301010167800000A3
:1009D00000000000130101FF232681001304010120
:1009E00093070000138507000324C10013010101D0
:1009F0006780000000000000130101FF2326810032
:100A00001304010193070000138507000324C100AC
:100A1000130101016780000000000000130101FFC5
:100A200023268100130401019307000013850700AA
:100A30000324C100130101016780000000000000D1
:100A4000130101FF23268100130401019307000015
:100A5000138507000324C100130101016780000012
:100A600000000000130101FF23268100130401018F
:100A700093070000138507000324C100130101013F
:100A80006780000000000000130101FF23268100A1
:100A90001304010193070000138507000324C1001C
:100AA000130101016780000000000000130101FF35
:100AB000232681001304010193070000138507001A
:100AC0000324C10013010101678000000000000041
:100AD000130101FF23268100130401019307000085
:100AE000138507000324C100130101016780000082
:100AF00000000000130101FD2326110223248102BE
:100B000013040103232EA4FC232CB4FC13062000A1
:100B1000B7370080938507CD0325C4FDEF20401231
:100B200093078000A307F4FE6F0080098347F4FE5B
:100B30009387F7FF2307F4FE8347E4FE939727008C
:100B40001307F000B317F70013870700832784FD0E
:100B50003377F7008347E4FE93972700B357F700F6
:100B6000A306F4FE0347D4FE9307900063EEE7006C
:100B70008347D4FE9387070393F7F70F9397870173
:100B800093D787416F0080018347D4FE9387770313
:100B900093F7F70F9397870193D787412306F4FEC6
:100BA0009307C4FE13061000938507000325C4FDB8
:100BB000EF2000098347F4FE9387F7FFA307F4FEB5
:100BC0008347F4FEE39407F6130000008320C1027C
:100BD000032481021301010367800000000000006C
:100BE000130101FD232611022324810213040103B2
:100BF000232EA4FCB7370080938747CD2326F4FE2D
:100C00000325C4FEEF1000129307050013860700AA
:100C10008325C4FE13052000EF2080028327C4FD36
:100C20009385070013052000EFF0DFEC6F00000054
:100C300000000000130101FE232E810013040102B5
:100C40002326A4FE0327C4FE930710006308F700C1
:100C50000327C4FE930720006316F70093071000D4
:100C60006F004001B7C701801307900023A4E7007D
:100C700093070000138507000324C101130101023B
:100C80006780000000000000130101FE232E810098
:100C9000130401022326A4FEB7C701800327C4FE64
:100CA00023A4E7009307F0FF138507000324C10185
:100CB000130101026780000000000000130101FD24
:100CC000232611022324810213040103232EA4FCF2
:100CD000232CB4FC232AC4FC832784FD2324F4FEA4
:100CE0000325C4FDEFF01FF593070500638C07088B
:100CF00083A7019163900702930610001306C002B8
:100D0000B715007013858190EF008017130710004E
:100D100023A8E190232604FE6F008005032784FEAC
:100D20008327C4FEB307F70013061000938507005E
:100D300013858190EF008026032784FE8327C4FE5D
:100D4000B307F70003C707009307A000631CF70071
:100D500013061000B7370080938547CF1385819025
:100D6000EF00C0238327C4FE938717002326F4FED9
:100D70000327C4FE832744FDE362F7FA832744FD7B
:100D80006F00000113059000EFF01FF093070500BE
:100D9000138507008320C10203248102130101038C
:100DA00067800000000000002320B500678000007D
:100DB0000325050067800000138E0600331EBE0069
:100DC000337ECE00032305009303060093C3F3FF95
:100DD000337373003363C301232065006780000011
:100DE000032505003375C5003355B5006780000045
:100DF0002310B50067800000031505006780000020
:100E0000138E0600331EBE00337ECE000313050092
:100E10009303060093C3F3FF337373003363C3017B
:100E20002310650067800000031505003375C500B9
:100E30003355B500678000002300B50067800000CF
:100E40000305050067800000138E0600331EBE00F8
:100E5000337ECE00030305009303060093C3F3FF24
:100E6000337373003363C3012300650067800000A0
:100E7000030505003375C5003355B50067800000D4
:100E8000130101FD2326110223248102130401030F
:100E9000232EA4FC232CB4FC930706001387060022
:100EA000231BF4FC93070700A30AF4FC8327C4FD6B
:100EB000638A070C034754FD9307700063E4E70C53
:100EC000035764FDB7270000637EF70A832784FD7C
:100ED00013878700835764FD93F7F70F9385070007
:100EE00013050700EFF05FF5832784FD9386C700A5
:100EF000034754FD835764FD93D7574093F7877F8B
:100F0000B367F7009385070013850600EFF0DFF263
:100F10008327C4FD032784FD23A0E7008327C4FDA6
:100F200083A707009387070113850700EFF05FF1A0
:100F30009307050093F72700A307F4FE6F008003D3
:100F40008327C4FD83A70700938747001385070005
:100F5000EFF01FEF8327C4FD83A7070093870701E6
:100F600013850700EFF0DFED9307050093F72700E7
:100F7000A307F4FE8347F4FEE39407FC8327C4FD34
:100F800023820700130000008320C1020324810292
:100F9000130101036780000000000000130101FD40
:100FA000232611022324810213040103232EA4FC0F
:100FB000232CB4FC232AC4FC8327C4FD63800708C8
:100FC000832784FD638C0706832744FD6388070617
:100FD000232604FE6F00C0058327C4FD83A70700F6
:100FE0009387070113850700EFF09FE5930705003E
:100FF00093F71700A305F4FE8347B4FEE38E07FCC6
:101000008327C4FD83A60700032784FD8327C4FE2E
:10101000B307F70083C70700938507001385060011
:10102000EFF09FE18327C4FE938717002326F4FE89
:101030000327C4FE832744FDE360F7FA1300000092
:101040008320C10203248102130101036780000091
:1010500000000000130101FD232611022324810258
:1010600013040103232EA4FC232CB4FC8327C4FD0A
:1010700063800708832784FD638C0706232604FE0C
:101080006F00C0058327C4FD83A70700938707016E
:1010900013850700EFF0DFDA9307050093F71700D9
:1010A000A305F4FE8347B4FEE38E07FC8327C4FD4B
:1010B00083A60700032784FD8327C4FEB307F70038
:1010C00083C707009385070013850600EFF0DFD67E
:1010D0008327C4FE938717002326F4FE032784FD8D
:1010E0008327C4FEB307F70083C70700E39C07F814
:1010F000130000008320C1020324810213010103B5
:101100006780000000000000130101FC232E110283
:10111000232C8102130401042326A4FC232204FEB1
:10112000EF00507983A7419263980700EF000029F0
:101130001307100023A2E1928327C4FC638A0702ED
:1011400093078000138707008327C4FCB387E70059
:101150002326F4FC8327C4FC93F73700638A070037
:101160008327C4FC93F7C7FF938747002326F4FC2B
:101170008327C4FC638607140327C4FCB7970100C8
:101180009387B7FF63EEE712938741912324F4FE20
:101190009387419183A707002326F4FE6F00800107
:1011A0008327C4FE2324F4FE8327C4FE83A70700FD
:1011B0002326F4FE8327C4FE83A747000327C4FC2D
:1011C00063F8E7008327C4FE83A70700E39A07FCC0
:1011D0000327C4FE9387C1916304F70E832784FE1F
:1011E00083A7070013078000B387E7002322F4FEDC
:1011F0008327C4FE03A70700832784FE23A0E700FC
:101200008327C4FE03A747008327C4FCB307F74026
:1012100013078000131717006376F7080327C4FE2F
:101220008327C4FCB307F700232EF4FC8327C4FEF6
:1012300003A747008327C4FC3307F7408327C4FD77
:1012400023A2E7008327C4FE0327C4FC23A2E700F0
:101250008327C4FD83A74700232CF4FC9387419187
:101260002320F4FE6F000001832704FE83A70700FC
:101270002320F4FE832704FE83A7070083A74700EB
:10128000032784FDE3E2E7FE832704FE03A70700AC
:101290008327C4FD23A0E700832704FE0327C4FDA2
:1012A00023A0E700B737008003A707DD8327C4FE2C
:1012B00083A747003307F740B737008023A8E7DC50
:1012C000EF001062832744FE63940700EF10D00CF8
:1012D000832744FE138507008320C1030324810371
:1012E000130101046780000000000000130101FDEC
:1012F000232611022324810213040103232EA4FCBC
:101300008327C4FD2324F4FE8327C4FD638C0708D0
:1013100093078000B307F040032784FEB307F7006C
:101320002324F4FE832784FE2322F4FEEF0090584A
:10133000832744FE83A747002320F4FE938741912F
:101340002326F4FE6F0000018327C4FE83A7070055
:101350002326F4FE8327C4FE83A7070083A7470044
:10136000032704FEE3E2E7FE8327C4FE03A707008A
:10137000832744FE23A0E7008327C4FE032744FEFF
:1013800023A0E700832744FE03A74700B737008068
:1013900083A707DD3307F700B737008023A8E7DC12
:1013A000EF001054130000008320C10203248102C7
:1013B000130101036780000000000000130101FE1B
:1013C000232E810013040102B7370080938747F46E
:1013D00093F7C7FF2326F4FE938741910327C4FEAA
:1013E00023A0E7009387419123A207009387C1912F
:1013F000379701001307C7FF23A2E7009387C19126
:1014000023A007008327C4FE2324F4FE832784FE41
:10141000379701001307C7FF23A2E700832784FE45
:101420001387C19123A0E700130000000324C1012A
:10143000130101026780000000000000130101FE9B
:10144000232E810013040102F32740F12326F4FE2A
:101450008327C4FE2324F4FEF36744302322F4FEE2
:1014600037070044832784FE93972700B307F700CC
:101470001307100023A0E700130000000324C1019C
:10148000130101026780000000000000130101FF4A
:10149000232681001304010173700430B7370080E4
:1014A00083A747DD13871700B737008023AAE7DC3F
:1014B000130000000324C100130101016780000034
:1014C00000000000130101FF232681001304010125
:1014D000B737008083A747DD1387F7FFB737008052
:1014E00023AAE7DCB737008083A747DD63940700B2
:1014F00073600430130000000324C10013010101D4
:101500006780000000000000130101FE232E81000F
:101510001304010237360080032686DD0326060009
:101520002324C4FE232604FE37360080032686DDEE
:1015300003264600930606001307000013980600D2
:1015400093070000032784FE3367F7002324E4FE9B
:101550000327C4FEB36707012326F4FE832684FE17
:101560000327C4FEB7450100938585431306000099
:10157000B387B600138507003335D5003308C7009D
:1015800033070501130807002324F4FE232604FF74
:10159000B737008083A7C7DD032784FE23A0E700B9
:1015A0008327C4FE13D3070093030000B7370080DE
:1015B00083A7C7DD1307030023A2E70093070008F2
:1015C00073A04730130000000324C101130101027E
:1015D0006780000000000000130101FE232E81003F
:1015E0001304010237360080032686DD0326060039
:1015F0002324C4FE232604FE37360080032686DD1E
:101600000326460093060600130700001398060001
:1016100093070000032784FE3367F7002324E4FECA
:101620000327C4FEB36707012326F4FE832684FE46
:101630000327C4FEB74501009385854313060000C8
:10164000B387B600138507003335D5003308C700CC
:1016500033070501130807002324F4FE232604FFA3
:10166000B737008083A7C7DD032784FE23A0E700E8
:101670008327C4FE13D3070093030000B73700800D
:1016800083A7C7DD1307030023A2E7009307000821
:1016900073A04730130000000324C10113010102AD
:1016A0006780000000000000130101FF2326810075
:1016B00013040101B737008003A747DD9307F0FF4C
:1016C0006306F700737004306F000000737004301D
:1016D0006F00000000000000130101FE232E8100B6
:1016E000130401022326A4FE2324B4FE2322C4FEF5
:1016F0008327C4FE9387C7FF2326F4FE032784FEB7
:101700008327C4FE23A0E7008327C4FE938787FABC
:101710002326F4FE032744FE8327C4FE23A0E7000C
:101720008327C4FE938787FE2326F4FE9387010058
:10173000138707008327C4FE23A0E7008327C4FE86
:10174000938747FF2326F4FEB71700801387876A25
:101750008327C4FE23A0E7008327C4FE1385070068
:101760000324C10113010102678000000000000092
:10177000130101FF2326110023248100130401011A
:101780009712000083A2C27723A0C200EFF0DFD738
:10179000EF00502B9307050063840700EF0090498A
:1017A000171100000321C175032101008322C10725
:1017B00073901234832001000322C10083220101AF
:1017C00003234101832381010324C10183240102F6
:1017D00003254102832581020326C10283260103DA
:1017E00003274103832781030328C10383280104BE
:1017F0000329410483298104032AC104832A0105A2
:10180000032B4105832B8105032CC105832C010685
:10181000032D4106832D8106032EC106832E010769
:10182000032F4107832F8107130101087300203024
:10183000130000008320C100032481001301010173
:101840006780000000000000130101FF2326110043
:101850002324810013040101EFF01FD8B737008063
:1018600023AA07DC1307100023A4E192EFE09FBB3B
:10187000EFF0DFBC93070000138507008320C10051
:1018800003248100130101016780000000000000B3
:10189000130101FF232611002324810013040101F9
:1018A00003A78192930710006318F7001307200025
:1018B00023A4E1926F0040019712000083A24264CA
:1018C00023A0C200EF001037B707004423A0070091
:1018D000171100000321C162032101008322C10707
:1018E00073901234832001000322C100832201017E
:1018F00003234101832381010324C10183240102C5
:1019000003254102832581020326C10283260103A8
:1019100003274103832781030328C103832801048C
:101920000329410483298104032AC104832A010570
:10193000032B4105832B8105032CC105832C010654
:10194000032D4106832D8106032EC106832E010738
:10195000032F4107832F81071301010873002030F3
:10196000130000008320C100032481001301010142
:101970006780000000000000130101FF2326110012
:101980002324810013040101EFF05FAB130000007A
:101990008320C1000324810013010101678000003E
:1019A00000000000130101FE232E81001304010238
:1019B0002326A4FE8327C4FE138787008327C4FE43
:1019C00023A2E7008327C4FE1307F0FF23A4E70048
:1019D0008327C4FE138787008327C4FE23A6E7005E
:1019E0008327C4FE138787008327C4FE23A8E7004C
:1019F0008327C4FE23A00700130000000324C101B5
:101A0000130101026780000000000000130101FEC5
:101A1000232E8100130401022326A4FE8327C4FE83
:101A200023A80700130000000324C10113010102D1
:101A30006780000000000000130101FD23268102E1
:101A400013040103232EA4FC232CB4FC8327C4FD20
:101A500083A747002326F4FE832784FD0327C4FEC3
:101A600023A2E7008327C4FE03A78700832784FD02
:101A700023A4E7008327C4FE83A78700032784FDF0
:101A800023A2E7008327C4FE032784FD23A4E700E5
:101A9000832784FD0327C4FD23A8E7008327C4FD13
:101AA00083A70700138717008327C4FD23A0E7003F
:101AB000130000000324C10213010103678000002A
:101AC00000000000130101FD23268102130401031D
:101AD000232EA4FC232CB4FC832784FD83A70700BA
:101AE0002324F4FE032784FE9307F0FF631AF70014
:101AF0008327C4FD83A707012326F4FE6F0040035C
:101B00008327C4FD938787002326F4FE6F0000011E
:101B10008327C4FE83A747002326F4FE8327C4FE41
:101B200083A7470083A70700032784FEE372F7FE1D
:101B30008327C4FE03A74700832784FD23A2E70071
:101B4000832784FD83A74700032784FD23A4E700A0
:101B5000832784FD0327C4FE23A4E7008327C4FE54
:101B6000032784FD23A2E700832784FD0327C4FD08
:101B700023A8E7008327C4FD83A707001387170066
:101B80008327C4FD23A0E700130000000324C10243
:101B9000130101036780000000000000130101FD34
:101BA0002326810213040103232EA4FC8327C4FDF2
:101BB00083A707012326F4FE8327C4FD83A74700DC
:101BC0000327C4FD0327870023A4E7008327C4FD60
:101BD00083A787000327C4FD0327470023A2E7004C
:101BE0008327C4FE83A747000327C4FD631AF700B9
:101BF0008327C4FD03A787008327C4FE23A2E70031
:101C00008327C4FD23A807008327C4FE83A70700FA
:101C10001387F7FF8327C4FE23A0E7008327C4FEB2
:101C200083A70700138507000324C10213010103E2
:101C30006780000000000000130101FD23268102DF
:101C400013040103232EA4FC232CB4FC232AC4FC7C
:101C50000327C4FD832744FDB367F70093F73700DC
:101C600063980706832784FD93F7F70F2322F4FE7A
:101C7000832744FE93978700032744FEB367F7004A
:101C80002322F4FE832744FE93970701032744FE93
:101C9000B367F7002322F4FE8327C4FD2326F4FE56
:101CA0006F0080018327C4FE138747002326E4FECC
:101CB000032744FE23A0E7000327C4FD832744FD38
:101CC000B307F7000327C4FEE36EF7FC6F000004C0
:101CD0008327C4FD2324F4FE6F000002832784FEC3
:101CE000138717002324E4FE032784FD13178701BD
:101CF000135787412380E7000327C4FD832744FD52
:101D0000B307F700032784FEE36AF7FC8327C4FDCB
:101D1000138507000324C10213010103678000003B
:101D200000000000130101FD2326810213040103BA
:101D3000232EA4FC8327C4FD2326F4FE6F0000019C
:101D40008327C4FE938717002326F4FE8327C4FE4F
:101D500083870700E39607FE0327C4FE8327C4FD9D
:101D6000B307F740138507000324C10213010103E1
:101D70006780000000000000130101FC232E110207
:101D8000232C810213040104232EA4FC232CB4FC75
:101D90002328D4FC2326E4FC2324F4FC232204FD82
:101DA000232014FD93070600231BF4FC8327C4FDA6
:101DB00063960700737004306F0000000327C4FCB3
:101DC0009307400063F6E700737004306F00000073
:101DD000835764FD832544FC13850700EF00102B17
:101DE0002324A4FE832784FE63820716832784FEB0
:101DF00003A70703835664FDB70700409387F7FFE7
:101E0000B387F60093972700B307F7002322F4FE69
:101E1000832744FE93F7C7FF2322F4FE832744FE63
:101E200093F7370063860700737004306F0000007B
:101E3000835764FD13870700832604FC0326C4FC34
:101E4000832584FD032584FEEF004071032604FDF5
:101E50008325C4FD032544FEEFF01F88130705000A
:101E6000832784FE23A0E700832784FC6388070080
:101E7000832784FC032784FE23A0E700EFF00FE113
:101E800083A7C1931387170023AEE19283A7C19262
:101E900063900702032784FE23A6E19203A7C19360
:101EA000930710006316F702EF00007F6F004002F7
:101EB00083A78194639E070083A7C19283A7C7026B
:101EC0000327C4FC6366F700032784FE23A6E19280
:101ED00083A781951387170023ACE19403A781950D
:101EE000832784FE23A4E704832784FE03A7C70275
:101EF00083A7419463F8E700832784FE03A7C70202
:101F000023A2E194832784FE03A7C7029307070057
:101F100093972700B387E7009397270037C701807F
:101F2000130707F43387E700832784FE938747006E
:101F30009385070013050700EFF01FB0930710000B
:101F40002326F4FEEFF00FD86F00C0009307F0FFD8
:101F50002326F4FE0327C4FE930710006310F70244
:101F600083A78194638C070083A7C19283A7C702CC
:101F70000327C4FC63F4E700EFF01FA08327C4FE2F
:101F8000138507008320C103032481031301010487
:101F90006780000000000000130101FD23261102EC
:101FA0002324810213040103232EA4FC232604FE10
:101FB0008327C4FD6384070483A701966386070013
:101FC000737004306F000000EF00C00E83A701940F
:101FD0000327C4FDB307F7002324F4FE83A7C192AF
:101FE0009387470013850700EFF05FBB032584FE4E
:101FF000EF001001EF00C00E2326A4FE8327C4FECD
:1020000063940700EFF05F97130000008320C10284
:102010000324810213010103678000000000000017
:10202000130101FE232E1100232C81001304010251
:102030009308000013080000930700001307000036
:102040009306000013060040B7350080938585CFC6
:102050003725008013054552EFF01FD22326A4FE3A
:102060000327C4FE930710006312F7027370043055
:102070001307F0FF23AEE1941307100023A4E194AB
:1020800023A00194EFF04FFC6F0040018327C4FEB2
:1020900063960700737004306F00000013000000A7
:1020A0008320C10103248101130101026780000024
:1020B00000000000130101FF232681001304010129
:1020C00083A701961387170023A0E1961300000051
:1020D0000324C1001301010167800000000000001B
:1020E000130101FE232E1100232C81001304010291
:1020F000232604FE83A701966396070073700430BD
:102100006F000000EFF08FB883A701961387F7FFE9
:1021100023A0E19683A701966396071083A7C19336
:10212000638207106F00800AB7C701809387C7FCDE
:1021300083A7C70083A7C7002324F4FE832784FE58
:102140009387870113850700EFF05FA5832784FE3F
:102150009387470013850700EFF05FA4832784FE71
:1021600003A7C70283A7419463F8E700832784FE8F
:1021700003A7C70223A2E194832784FE03A7C70213
:102180009307070093972700B387E70093972700EB
:1021900037C70180130707F43387E700832784FEDE
:1021A000938747009385070013050700EFF0DF884A
:1021B000832784FE03A7C70283A7C19283A7C70210
:1021C0006366F7001307100023A8E194B7C70180E6
:1021D00083A7C7FCE39A07F483A7C1946388070227
:1021E0006F004002EF0000069307050063860700BA
:1021F0001307100023A8E19483A7C1941387F7FF66
:1022000023A6E19483A7C194E39E07FC03A701954D
:10221000930710006318F700930710002326F4FEBD
:10222000EFF08FF5EFF00FAA8327C4FE13850700A8
:102230008320C10103248101130101026780000092
:1022400000000000130101FD232611022324810256
:1022500013040103232604FE83A701966390071A43
:1022600083A701941387170023A0E19483A7019407
:102270002324F4FE832784FE6390070483A701933D
:1022800083A7070063860700737004306F000000A7
:1022900083A701932322F4FE03A7419323A8E1928D
:1022A000032744FE23AAE19283A7419513871700D1
:1022B00023AAE194EF00006E83A7C195032784FE53
:1022C0006360F71083A7019383A707006396070055
:1022D000930710006F0080009307000063880700D9
:1022E0001307F0FF23AEE1946F00800D83A70193E5
:1022F00083A7C70083A7C7002320F4FE832704FE1B
:1023000083A74700232EF4FC032784FE8327C4FD04
:102310006378F7000327C4FD23AEE1946F00400A01
:10232000832704FE9387470013850700EFF01F877C
:10233000832704FE83A78702638A0700832704FE9E
:102340009387870113850700EFF05F85832704FEDD
:1023500003A7C70283A7419463F8E700832704FE1D
:1023600003A7C70223A2E194832704FE03A7C702A1
:102370009307070093972700B387E70093972700F9
:1023800037C70180130707F43387E700832704FE6C
:10239000938747009385070013050700EFF0CFE907
:1023A000832704FE03A7C70283A7C19283A7C7029E
:1023B000E36AF7F0930710002326F4FE6FF09FF016
:1023C00083A7C19203A7C702B7C60180930707007E
:1023D00093972700B387E70093972700138706F4A6
:1023E000B387E70003A707009307100063FEE70029
:1023F000930710002326F4FE6F00000183A7C19409
:102400001387170023A6E19483A70195638607002D
:10241000930710002326F4FE8327C4FE13850700CC
:102420008320C1020324810213010103678000009D
:1024300000000000130101FE232E8100130401029D
:1024400083A70196638807001307100023A8E1946F
:102450006F00000C23A801946F00000283A7419431
:1024600063960700737004306F00000083A74194E7
:102470001387F7FF23A2E19403A74194B7C6018015
:102480009307070093972700B387E70093972700E8
:10249000138706F4B387E70083A70700E38007FCF0
:1024A00003A741949307070093972700B387E7009A
:1024B0009397270037C70180130707F4B387E70016
:1024C0002326F4FE8327C4FE83A7470003A7470003
:1024D0008327C4FE23A2E7008327C4FE03A7470087
:1024E0008327C4FE93878700631CF7008327C4FEFD
:1024F00083A7470003A747008327C4FE23A2E70062
:102500008327C4FE83A7470003A7C70023A6E19241
:10251000130000000324C1011301010267800000C1
:1025200000000000130101FE232E1100232C810066
:10253000130401022326A4FEEF004022B7C7018046
:1025400003A707F49307100063F4E700EFF0CFC28E
:10255000EF0000666FF05FFE00000000130101FC59
:10256000232E1102232C810213040104232EA4FC28
:10257000232CB4FC232AC4FC2328D4FC9307070093
:102580002317F4FC232604FE6F004004032784FD78
:102590008327C4FEB307F700038707008326C4FD23
:1025A0008327C4FEB387F600238AE702032784FD4E
:1025B0008327C4FEB307F700838707006380070201
:1025C0008327C4FE938717002326F4FE0327C4FE47
:1025D0009307F000E3FCE7FA6F00800013000000AF
:1025E0008327C4FDA3810704032744FD930740000C
:1025F00063F6E70093074000232AF4FC8327C4FD19
:10260000032744FD23A6E7028327C4FD032744FDD7
:1026100023A8E7048327C4FD23AA07048327C4FD56
:102620009387470013850700EFF04FBE8327C4FD53
:102630009387870113850700EFF04FBD8327C4FD03
:102640000327C4FD23A8E70013075000832744FD98
:102650003307F7408327C4FD23ACE7008327C4FD7D
:102660000327C4FD23A2E7028327C4FD23A2070496
:102670008327C4FD23AC07048327C4FD23AE0704CE
:10268000130000008320C10303248103130101040C
:102690006780000000000000130101FE232E1100DE
:1026A000232C810013040102232604FE6F00800303
:1026B0000327C4FE9307070093972700B387E7001B
:1026C0009397270037C70180130707F4B387E70004
:1026D00013850700EFF00FAD8327C4FE9387170023
:1026E0002326F4FE0327C4FE93074000E3F2E7FC31
:1026F000B7C70180138547FAEFF0CFAAB7C70180AB
:10270000138587FBEFF00FAAB7C701801385C7FCBD
:10271000EFF04FA9B7C70180138507FEEFF08FA830
:10272000B7C70180138547FFEFF0CFA737C70180F8
:10273000130747FA23A8E19237C70180130787FBE5
:1027400023AAE192130000008320C1010324810128
:10275000130101026780000000000000130101FE68
:10276000232E1100232C8100130401026F00400767
:10277000EFF05F94B7C7018083A707FE93B71700F8
:1027800093F7F70F2326F4FEEFF09F958327C4FEFF
:1027900063980704EFE09FCFB7C70180938707FED8
:1027A00083A7C70083A7C7002324F4FE832784FEE2
:1027B0009387470013850700EFF04FBE83A7C193AF
:1027C0001387F7FF23AEE19283A781931387F7FF67
:1027D00023ACE192EFE01FCF032584FEEF0040170A
:1027E00083A78193E39607F8130000008320C101BB
:1027F0000324810113010102678000000000000032
:10280000130101FE232E1100232C81001304010269
:102810002326A4FE83A7C1920327C4FE23A2E700B8
:1028200083A701940327C4FE6370F70203A74193B3
:1028300083A7C1929387470093850700130507007C
:10284000EFF04FA86F00000303A7019383A7C19285
:10285000938747009385070013050700EFF08FA6C5
:1028600083A7C1950327C4FE6376F7000327C4FE40
:1028700023AEE194130000008320C10103248101F1
:10288000130101026780000000000000130101FD38
:102890002326110223248102130401039307050058
:1028A000232CB4FC231FF4FC832784FD639E0700C4
:1028B0008357E4FD9397270013850700EFE0DF843B
:1028C000930705006F008000832784FD2324F4FE16
:1028D000832784FE638A070213050006EFE0DF8288
:1028E0002326A4FE8327C4FE638A07008327C4FE31
:1028F000032784FE23A8E7026F004001032584FE1E
:10290000EFE0DF9E6F008000232604FE8327C4FED5
:10291000638207028327C4FE03A707038357E4FDEE
:1029200093972700138607009305500A13050700A5
:10293000EFF08FB08327C4FE138507008320C10208
:1029400003248102130101036780000000000000DE
:10295000130101FE232E1100232C81001304010218
:102960002326A4FE8327C4FE83A70703138507003D
:10297000EFE0DF970325C4FEEFE05F971300000050
:102980008320C1010324810113010102678000003B
:1029900000000000130101FE232E81001304010238
:1029A00083A7019383A7070063960700930710008E
:1029B0006F00800093070000638807001307F0FF93
:1029C00023AEE1946F00000283A7019383A7C700A1
:1029D00083A7C7002326F4FE8327C4FE03A747006E
:1029E00023AEE194130000000324C101130101028E
:1029F0006780000000000000130101FE232E81000B
:102A000013040102F32740F12324F4FE832784FEFC
:102A10002322F4FE232604FE6F00C0033707004084
:102A2000832744FE939657008327C4FEB386F6009F
:102A3000B717000093870780B387F60093972700A6
:102A4000B307F70023A007008327C4FE938717006E
:102A50002326F4FE8327C4FEE38207FC232604FE1C
:102A60006F004002370700408327C4FE939727007A
:102A7000B307F70023A007008327C4FE938717003E
:102A80002326F4FE0327C4FE9307E001E3FCE7FCE2
:102A900037070040832744FE938707209397C7009A
:102AA000B307F70023A00700B7170000938707803C
:102AB000F3A747302320F4FE130000000324C101D4
:102AC000130101026780000000000000130101FFF4
:102AD000232611002324810013040101EFF0DFF10C
:102AE000930610001306C002B7150070B7C7018027
:102AF0001385C700EFE0CFB8B7370080938587D143
:102B0000B7C701801385C700EFE0CFD4B737008087
:102B10009385C7D5B7C701801385C700EFE08FD372
:102B2000930800001308000093070000130720001B
:102B3000930600001306803EB7350080938545DA82
:102B400037350080130505BDEFF00FA39308000093
:102B500013080000930700001307200093060000ED
:102B60001306803EB73500809385C5DA373500807F
:102B7000130585C0EFF04FA0EFF08FCA9307000058
:102B8000138507008320C100032481001301010184
:102B90006780000000000000130101FF2326810070
:102BA00013040101737004306F0000000000000086
:102BB000130101FF2326810013040101130000000B
:102BC0000324C10013010101678000000000000020
:102BD000130101FE232E1100232C81001304010296
:102BE0002326A4FEB7370080938547DBB7C7018053
:102BF0001385C700EFE00FC61305A000EFF0CFB9B3
:102C00006FF05FFE00000000130101FE232E110093
:102C1000232C8100130401022326A4FEB737008071
:102C2000938507DCB7C701801385C700EFE08FC22B
:102C300013055000EFF04FB66FF05FFE000000008C
:102C4000970700009387071A93060600138605006E
:102C50009305050003A507006F0080000000000039
:102C6000130101FF232481001304050013850500CF
:102C700093050600138606009797010023A80738DE
:102C800023261100EFE08F839307F0FF631CF5000C
:102C9000979701009387873783A70700638407000E
:102CA0002320F4008320C1000324810013010101CB
:102CB000678000000000000000000000000000002D
:102CC00068656C6C6F000000747261700A0000002F
:102CD000307800000A50726F67616D206861732060
:102CE000657869746564207769746820636F6465CA
:102CF0003A0000000D00000049444C45000000006F
:102D00000D0A4672656552544F53204578616D70C7
:102D10006C650D0A000000000D0A0D0A09095361D7
:102D20006D706C652044656D6F6E7374726174694B
:102D30006F6E206F66204672656552544F53207047
:102D40006F727420666F72204D692D562070726FFD
:102D5000636573736F722E0D0A0D0A0009095468BA
:102D600069732070726F6A65637420637265617441
:102D70006573202074776F207461736B7320616EAC
:102D8000642072756E73207468656D2061742072A2
:102D90006567756C617220696E74657276616C73BB
:102DA0002E0D0A00554172743100000055417274B5
:102DB000320000005461736B202D20310D0A000099
:102DC0005461736B202D20320D0A000000000000BA
:102DD000FC8F0100AAAAAAAAF8BF00440040004440
:102DE000702E0080000000000000000000000000C5
:102DF0007406008098060080BC060080E006008013
:102E000004070080280700804C07008070070080BE
:102E100094070080B8070080DC070080000800806D
:102E200024080080480800806C080080900800801A
:102E3000B4080080D8080080FC08008020090080C9
:102E400044090080680900808C090080B009008076
:102E5000D4090080F80900801C0A0080400A008024
:102E6000640A0080880A0080AC0A0080D00A0080D2
:102E70000000000000000000000000000000000052
:102E80000000000000000000000000000000000042
:102E90000000000000000000000000000000000032
:102EA0000000000000000000000000000000000022
:102EB0000000000000000000000000000000000012
:102EC0000000000000000000000000000000000002
:040000058000000077
:00000001FF
